{
  "_format": "hh-sol-artifact-1",
  "contractName": "Token",
  "sourceName": "contracts/Token.sol",
  "abi": [
    {
      "inputs": [
        {
          "internalType": "string",
          "name": "tokenName",
          "type": "string"
        },
        {
          "internalType": "string",
          "name": "tokenSymbol",
          "type": "string"
        },
        {
          "internalType": "uint8",
          "name": "tokenDecimal",
          "type": "uint8"
        },
        {
          "internalType": "uint256",
          "name": "supply",
          "type": "uint256"
        }
      ],
      "stateMutability": "nonpayable",
      "type": "constructor"
    },
    {
      "anonymous": false,
      "inputs": [
        {
          "indexed": true,
          "internalType": "address",
          "name": "owner",
          "type": "address"
        },
        {
          "indexed": true,
          "internalType": "address",
          "name": "spender",
          "type": "address"
        },
        {
          "indexed": false,
          "internalType": "uint256",
          "name": "value",
          "type": "uint256"
        }
      ],
      "name": "Approval",
      "type": "event"
    },
    {
      "anonymous": false,
      "inputs": [
        {
          "indexed": true,
          "internalType": "address",
          "name": "from",
          "type": "address"
        },
        {
          "indexed": true,
          "internalType": "address",
          "name": "to",
          "type": "address"
        },
        {
          "indexed": false,
          "internalType": "uint256",
          "name": "value",
          "type": "uint256"
        }
      ],
      "name": "Transfer",
      "type": "event"
    },
    {
      "inputs": [
        {
          "internalType": "address",
          "name": "recipient",
          "type": "address"
        },
        {
          "internalType": "uint256",
          "name": "amount",
          "type": "uint256"
        }
      ],
      "name": "_burn",
      "outputs": [],
      "stateMutability": "nonpayable",
      "type": "function"
    },
    {
      "inputs": [
        {
          "internalType": "address",
          "name": "recipient",
          "type": "address"
        },
        {
          "internalType": "uint256",
          "name": "amount",
          "type": "uint256"
        }
      ],
      "name": "_mint",
      "outputs": [],
      "stateMutability": "nonpayable",
      "type": "function"
    },
    {
      "inputs": [
        {
          "internalType": "address",
          "name": "",
          "type": "address"
        },
        {
          "internalType": "address",
          "name": "",
          "type": "address"
        }
      ],
      "name": "allowance",
      "outputs": [
        {
          "internalType": "uint256",
          "name": "",
          "type": "uint256"
        }
      ],
      "stateMutability": "view",
      "type": "function"
    },
    {
      "inputs": [
        {
          "internalType": "address",
          "name": "spender",
          "type": "address"
        },
        {
          "internalType": "uint256",
          "name": "amount",
          "type": "uint256"
        }
      ],
      "name": "approve",
      "outputs": [
        {
          "internalType": "bool",
          "name": "",
          "type": "bool"
        }
      ],
      "stateMutability": "nonpayable",
      "type": "function"
    },
    {
      "inputs": [
        {
          "internalType": "address",
          "name": "",
          "type": "address"
        }
      ],
      "name": "balanceOf",
      "outputs": [
        {
          "internalType": "uint256",
          "name": "",
          "type": "uint256"
        }
      ],
      "stateMutability": "view",
      "type": "function"
    },
    {
      "inputs": [],
      "name": "decimals",
      "outputs": [
        {
          "internalType": "uint8",
          "name": "",
          "type": "uint8"
        }
      ],
      "stateMutability": "view",
      "type": "function"
    },
    {
      "inputs": [],
      "name": "name",
      "outputs": [
        {
          "internalType": "string",
          "name": "",
          "type": "string"
        }
      ],
      "stateMutability": "view",
      "type": "function"
    },
    {
      "inputs": [],
      "name": "symbol",
      "outputs": [
        {
          "internalType": "string",
          "name": "",
          "type": "string"
        }
      ],
      "stateMutability": "view",
      "type": "function"
    },
    {
      "inputs": [
        {
          "internalType": "address",
          "name": "receipent",
          "type": "address"
        },
        {
          "internalType": "uint256",
          "name": "amount",
          "type": "uint256"
        }
      ],
      "name": "transfer",
      "outputs": [
        {
          "internalType": "bool",
          "name": "",
          "type": "bool"
        }
      ],
      "stateMutability": "nonpayable",
      "type": "function"
    },
    {
      "inputs": [
        {
          "internalType": "address",
          "name": "sender",
          "type": "address"
        },
        {
          "internalType": "address",
          "name": "recipient",
          "type": "address"
        },
        {
          "internalType": "uint256",
          "name": "amount",
          "type": "uint256"
        }
      ],
      "name": "transferFrom",
      "outputs": [
        {
          "internalType": "bool",
          "name": "",
          "type": "bool"
        }
      ],
      "stateMutability": "nonpayable",
      "type": "function"
    }
  ],
  "bytecode": "0x60806040523480156200001157600080fd5b506040516200187d3803806200187d8339818101604052810190620000379190620002fe565b8360039081620000489190620005ef565b5082600490816200005a9190620005ef565b5081600560006101000a81548160ff021916908360ff1602179055508060008082825462000089919062000705565b9250508190555080600160003373ffffffffffffffffffffffffffffffffffffffff1673ffffffffffffffffffffffffffffffffffffffff1681526020019081526020016000206000828254620000e1919062000705565b925050819055505050505062000740565b6000604051905090565b600080fd5b600080fd5b600080fd5b600080fd5b6000601f19601f8301169050919050565b7f4e487b7100000000000000000000000000000000000000000000000000000000600052604160045260246000fd5b6200015b8262000110565b810181811067ffffffffffffffff821117156200017d576200017c62000121565b5b80604052505050565b600062000192620000f2565b9050620001a0828262000150565b919050565b600067ffffffffffffffff821115620001c357620001c262000121565b5b620001ce8262000110565b9050602081019050919050565b60005b83811015620001fb578082015181840152602081019050620001de565b60008484015250505050565b60006200021e6200021884620001a5565b62000186565b9050828152602081018484840111156200023d576200023c6200010b565b5b6200024a848285620001db565b509392505050565b600082601f8301126200026a576200026962000106565b5b81516200027c84826020860162000207565b91505092915050565b600060ff82169050919050565b6200029d8162000285565b8114620002a957600080fd5b50565b600081519050620002bd8162000292565b92915050565b6000819050919050565b620002d881620002c3565b8114620002e457600080fd5b50565b600081519050620002f881620002cd565b92915050565b600080600080608085870312156200031b576200031a620000fc565b5b600085015167ffffffffffffffff8111156200033c576200033b62000101565b5b6200034a8782880162000252565b945050602085015167ffffffffffffffff8111156200036e576200036d62000101565b5b6200037c8782880162000252565b93505060406200038f87828801620002ac565b9250506060620003a287828801620002e7565b91505092959194509250565b600081519050919050565b7f4e487b7100000000000000000000000000000000000000000000000000000000600052602260045260246000fd5b600060028204905060018216806200040157607f821691505b602082108103620004175762000416620003b9565b5b50919050565b60008190508160005260206000209050919050565b60006020601f8301049050919050565b600082821b905092915050565b600060088302620004817fffffffffffffffffffffffffffffffffffffffffffffffffffffffffffffffff8262000442565b6200048d868362000442565b95508019841693508086168417925050509392505050565b6000819050919050565b6000620004d0620004ca620004c484620002c3565b620004a5565b620002c3565b9050919050565b6000819050919050565b620004ec83620004af565b62000504620004fb82620004d7565b8484546200044f565b825550505050565b600090565b6200051b6200050c565b62000528818484620004e1565b505050565b5b8181101562000550576200054460008262000511565b6001810190506200052e565b5050565b601f8211156200059f5762000569816200041d565b620005748462000432565b8101602085101562000584578190505b6200059c620005938562000432565b8301826200052d565b50505b505050565b600082821c905092915050565b6000620005c460001984600802620005a4565b1980831691505092915050565b6000620005df8383620005b1565b9150826002028217905092915050565b620005fa82620003ae565b67ffffffffffffffff81111562000616576200061562000121565b5b620006228254620003e8565b6200062f82828562000554565b600060209050601f83116001811462000667576000841562000652578287015190505b6200065e8582620005d1565b865550620006ce565b601f19841662000677866200041d565b60005b82811015620006a1578489015182556001820191506020850194506020810190506200067a565b86831015620006c15784890151620006bd601f891682620005b1565b8355505b6001600288020188555050505b505050505050565b7f4e487b7100000000000000000000000000000000000000000000000000000000600052601160045260246000fd5b60006200071282620002c3565b91506200071f83620002c3565b92508282019050808211156200073a5762000739620006d6565b5b92915050565b61112d80620007506000396000f3fe608060405234801561001057600080fd5b506004361061009e5760003560e01c80636161eb18116100665780636161eb181461015b57806370a082311461017757806395d89b41146101a7578063a9059cbb146101c5578063dd62ed3e146101f55761009e565b806306fdde03146100a3578063095ea7b3146100c157806323b872dd146100f1578063313ce567146101215780634e6ec2471461013f575b600080fd5b6100ab610225565b6040516100b89190610c1e565b60405180910390f35b6100db60048036038101906100d69190610cd9565b6102b3565b6040516100e89190610d34565b60405180910390f35b61010b60048036038101906101069190610d4f565b6103a5565b6040516101189190610d34565b60405180910390f35b6101296105bf565b6040516101369190610dbe565b60405180910390f35b61015960048036038101906101549190610cd9565b6105d2565b005b61017560048036038101906101709190610cd9565b61073a565b005b610191600480360381019061018c9190610dd9565b610924565b60405161019e9190610e15565b60405180910390f35b6101af61093c565b6040516101bc9190610c1e565b60405180910390f35b6101df60048036038101906101da9190610cd9565b6109ca565b6040516101ec9190610d34565b60405180910390f35b61020f600480360381019061020a9190610e30565b610b69565b60405161021c9190610e15565b60405180910390f35b6003805461023290610e9f565b80601f016020809104026020016040519081016040528092919081815260200182805461025e90610e9f565b80156102ab5780601f10610280576101008083540402835291602001916102ab565b820191906000526020600020905b81548152906001019060200180831161028e57829003601f168201915b505050505081565b600081600260003373ffffffffffffffffffffffffffffffffffffffff1673ffffffffffffffffffffffffffffffffffffffff16815260200190815260200160002060008573ffffffffffffffffffffffffffffffffffffffff1673ffffffffffffffffffffffffffffffffffffffff168152602001908152602001600020819055508273ffffffffffffffffffffffffffffffffffffffff163373ffffffffffffffffffffffffffffffffffffffff167f8c5be1e5ebec7d5bd14f71427d1e84f3dd0314c0f7b2291e5b200ac8c7c3b925846040516103939190610e15565b60405180910390a36001905092915050565b600081600260003373ffffffffffffffffffffffffffffffffffffffff1673ffffffffffffffffffffffffffffffffffffffff16815260200190815260200160002060008673ffffffffffffffffffffffffffffffffffffffff1673ffffffffffffffffffffffffffffffffffffffff168152602001908152602001600020541015610466576040517f08c379a000000000000000000000000000000000000000000000000000000000815260040161045d90610f42565b60405180910390fd5b81600260003373ffffffffffffffffffffffffffffffffffffffff1673ffffffffffffffffffffffffffffffffffffffff16815260200190815260200160002060008673ffffffffffffffffffffffffffffffffffffffff1673ffffffffffffffffffffffffffffffffffffffff16815260200190815260200160002060008282546104f29190610f91565b9250508190555081600160008573ffffffffffffffffffffffffffffffffffffffff1673ffffffffffffffffffffffffffffffffffffffff16815260200190815260200160002060008282546105489190610fc5565b925050819055508273ffffffffffffffffffffffffffffffffffffffff163373ffffffffffffffffffffffffffffffffffffffff167fddf252ad1be2c89b69c2b068fc378daa952ba7f163c4a11628f55a4df523b3ef846040516105ac9190610e15565b60405180910390a3600190509392505050565b600560009054906101000a900460ff1681565b600560019054906101000a900473ffffffffffffffffffffffffffffffffffffffff1673ffffffffffffffffffffffffffffffffffffffff163373ffffffffffffffffffffffffffffffffffffffff1614610662576040517f08c379a000000000000000000000000000000000000000000000000000000000815260040161065990611045565b60405180910390fd5b80600160008473ffffffffffffffffffffffffffffffffffffffff1673ffffffffffffffffffffffffffffffffffffffff16815260200190815260200160002060008282546106b19190610fc5565b92505081905550806000808282546106c99190610fc5565b925050819055508173ffffffffffffffffffffffffffffffffffffffff16600073ffffffffffffffffffffffffffffffffffffffff167fddf252ad1be2c89b69c2b068fc378daa952ba7f163c4a11628f55a4df523b3ef8360405161072e9190610e15565b60405180910390a35050565b600560019054906101000a900473ffffffffffffffffffffffffffffffffffffffff1673ffffffffffffffffffffffffffffffffffffffff163373ffffffffffffffffffffffffffffffffffffffff16146107ca576040517f08c379a00000000000000000000000000000000000000000000000000000000081526004016107c190611045565b60405180910390fd5b80600160008473ffffffffffffffffffffffffffffffffffffffff1673ffffffffffffffffffffffffffffffffffffffff16815260200190815260200160002054101561084c576040517f08c379a0000000000000000000000000000000000000000000000000000000008152600401610843906110d7565b60405180910390fd5b80600160008473ffffffffffffffffffffffffffffffffffffffff1673ffffffffffffffffffffffffffffffffffffffff168152602001908152602001600020600082825461089b9190610f91565b92505081905550806000808282546108b39190610f91565b92505081905550600073ffffffffffffffffffffffffffffffffffffffff168273ffffffffffffffffffffffffffffffffffffffff167fddf252ad1be2c89b69c2b068fc378daa952ba7f163c4a11628f55a4df523b3ef836040516109189190610e15565b60405180910390a35050565b60016020528060005260406000206000915090505481565b6004805461094990610e9f565b80601f016020809104026020016040519081016040528092919081815260200182805461097590610e9f565b80156109c25780601f10610997576101008083540402835291602001916109c2565b820191906000526020600020905b8154815290600101906020018083116109a557829003601f168201915b505050505081565b600081600160003373ffffffffffffffffffffffffffffffffffffffff1673ffffffffffffffffffffffffffffffffffffffff168152602001908152602001600020541015610a4e576040517f08c379a0000000000000000000000000000000000000000000000000000000008152600401610a4590610f42565b60405180910390fd5b81600160003373ffffffffffffffffffffffffffffffffffffffff1673ffffffffffffffffffffffffffffffffffffffff1681526020019081526020016000206000828254610a9d9190610f91565b9250508190555081600160008573ffffffffffffffffffffffffffffffffffffffff1673ffffffffffffffffffffffffffffffffffffffff1681526020019081526020016000206000828254610af39190610fc5565b925050819055508273ffffffffffffffffffffffffffffffffffffffff163373ffffffffffffffffffffffffffffffffffffffff167fddf252ad1be2c89b69c2b068fc378daa952ba7f163c4a11628f55a4df523b3ef84604051610b579190610e15565b60405180910390a36001905092915050565b6002602052816000526040600020602052806000526040600020600091509150505481565b600081519050919050565b600082825260208201905092915050565b60005b83811015610bc8578082015181840152602081019050610bad565b60008484015250505050565b6000601f19601f8301169050919050565b6000610bf082610b8e565b610bfa8185610b99565b9350610c0a818560208601610baa565b610c1381610bd4565b840191505092915050565b60006020820190508181036000830152610c388184610be5565b905092915050565b600080fd5b600073ffffffffffffffffffffffffffffffffffffffff82169050919050565b6000610c7082610c45565b9050919050565b610c8081610c65565b8114610c8b57600080fd5b50565b600081359050610c9d81610c77565b92915050565b6000819050919050565b610cb681610ca3565b8114610cc157600080fd5b50565b600081359050610cd381610cad565b92915050565b60008060408385031215610cf057610cef610c40565b5b6000610cfe85828601610c8e565b9250506020610d0f85828601610cc4565b9150509250929050565b60008115159050919050565b610d2e81610d19565b82525050565b6000602082019050610d496000830184610d25565b92915050565b600080600060608486031215610d6857610d67610c40565b5b6000610d7686828701610c8e565b9350506020610d8786828701610c8e565b9250506040610d9886828701610cc4565b9150509250925092565b600060ff82169050919050565b610db881610da2565b82525050565b6000602082019050610dd36000830184610daf565b92915050565b600060208284031215610def57610dee610c40565b5b6000610dfd84828501610c8e565b91505092915050565b610e0f81610ca3565b82525050565b6000602082019050610e2a6000830184610e06565b92915050565b60008060408385031215610e4757610e46610c40565b5b6000610e5585828601610c8e565b9250506020610e6685828601610c8e565b9150509250929050565b7f4e487b7100000000000000000000000000000000000000000000000000000000600052602260045260246000fd5b60006002820490506001821680610eb757607f821691505b602082108103610eca57610ec9610e70565b5b50919050565b7f43616c6c65722773206163636f756e742062616c616e636520646f6573206e6f60008201527f74206861766520656e6f75676820746f6b656e7320746f207370656e64000000602082015250565b6000610f2c603d83610b99565b9150610f3782610ed0565b604082019050919050565b60006020820190508181036000830152610f5b81610f1f565b9050919050565b7f4e487b7100000000000000000000000000000000000000000000000000000000600052601160045260246000fd5b6000610f9c82610ca3565b9150610fa783610ca3565b9250828203905081811115610fbf57610fbe610f62565b5b92915050565b6000610fd082610ca3565b9150610fdb83610ca3565b9250828201905080821115610ff357610ff2610f62565b5b92915050565b7f4f6e6c79204f776e65722063616e206d696e742074686520746f6b656e000000600082015250565b600061102f601d83610b99565b915061103a82610ff9565b602082019050919050565b6000602082019050818103600083015261105e81611022565b9050919050565b7f526563697069656e7420646f6573206e6f74206861766520656e6f756768207460008201527f6f6b656e73000000000000000000000000000000000000000000000000000000602082015250565b60006110c1602583610b99565b91506110cc82611065565b604082019050919050565b600060208201905081810360008301526110f0816110b4565b905091905056fea26469706673582212203e934ccc6b6a88bd2a5ca0d243606a837d99ed17f9d48f749e81c9855154b5a864736f6c63430008180033",
  "linkReferences": {},
  "deployedLinkReferences": {}
}